{
  "_format": "hh-sol-artifact-1",
  "contractName": "Ecommerce",
  "sourceName": "contracts/Ecommerce.sol",
  "abi": [
    {
      "anonymous": false,
      "inputs": [
        {
          "indexed": false,
          "internalType": "string",
          "name": "name",
          "type": "string"
        },
        {
          "indexed": false,
          "internalType": "uint256",
          "name": "timestamp",
          "type": "uint256"
        }
      ],
      "name": "Brand",
      "type": "event"
    },
    {
      "anonymous": false,
      "inputs": [
        {
          "indexed": false,
          "internalType": "string",
          "name": "name",
          "type": "string"
        },
        {
          "indexed": false,
          "internalType": "uint256",
          "name": "timestamp",
          "type": "uint256"
        }
      ],
      "name": "Category",
      "type": "event"
    },
    {
      "inputs": [
        {
          "internalType": "string",
          "name": "name",
          "type": "string"
        }
      ],
      "name": "addBrand",
      "outputs": [],
      "stateMutability": "nonpayable",
      "type": "function"
    },
    {
      "inputs": [
        {
          "internalType": "string",
          "name": "name",
          "type": "string"
        }
      ],
      "name": "addCategory",
      "outputs": [],
      "stateMutability": "nonpayable",
      "type": "function"
    },
    {
      "inputs": [
        {
          "internalType": "string",
          "name": "name",
          "type": "string"
        }
      ],
      "name": "checkIfBrandExists",
      "outputs": [
        {
          "internalType": "bool",
          "name": "",
          "type": "bool"
        }
      ],
      "stateMutability": "view",
      "type": "function"
    },
    {
      "inputs": [
        {
          "internalType": "string",
          "name": "name",
          "type": "string"
        }
      ],
      "name": "checkIfCategoryExists",
      "outputs": [
        {
          "internalType": "bool",
          "name": "",
          "type": "bool"
        }
      ],
      "stateMutability": "view",
      "type": "function"
    },
    {
      "inputs": [],
      "name": "getAllBrands",
      "outputs": [
        {
          "components": [
            {
              "internalType": "string",
              "name": "name",
              "type": "string"
            },
            {
              "internalType": "uint256",
              "name": "timestamp",
              "type": "uint256"
            }
          ],
          "internalType": "struct Ecommerce.BrandStruct[]",
          "name": "",
          "type": "tuple[]"
        }
      ],
      "stateMutability": "view",
      "type": "function"
    },
    {
      "inputs": [],
      "name": "getAllCategories",
      "outputs": [
        {
          "components": [
            {
              "internalType": "string",
              "name": "name",
              "type": "string"
            },
            {
              "internalType": "uint256",
              "name": "timestamp",
              "type": "uint256"
            }
          ],
          "internalType": "struct Ecommerce.CategoryStruct[]",
          "name": "",
          "type": "tuple[]"
        }
      ],
      "stateMutability": "view",
      "type": "function"
    }
  ],
  "bytecode": "0x608060405234801561001057600080fd5b50610e20806100206000396000f3fe608060405234801561001057600080fd5b50600436106100625760003560e01c80632e0dcbf71461006757806360e8ddb014610083578063ac9a255c146100a1578063af87de4b146100d1578063bc489a0d146100ed578063dadd0a571461011d575b600080fd5b610081600480360381019061007c919061075a565b61013b565b005b61008b6101f3565b6040516100989190610aa4565b60405180910390f35b6100bb60048036038101906100b6919061075a565b6102ee565b6040516100c89190610ae8565b60405180910390f35b6100eb60048036038101906100e6919061075a565b6103c5565b005b6101076004803603810190610102919061075a565b61047d565b6040516101149190610ae8565b60405180910390f35b610125610554565b6040516101329190610ac6565b60405180910390f35b6101448161047d565b1561014e57600080fd5b6001604051806040016040528083815260200142815250908060018154018082558091505060019003906000526020600020906002020160009091909190915060008201518160000190805190602001906101aa92919061064f565b506020820151816001015550507f90f0bd491289c4dd752166aed83ef89ebdd7e2d20674f90d036e77bee8ee808c81426040516101e8929190610b03565b60405180910390a150565b60606000805480602002602001604051908101604052809291908181526020016000905b828210156102e5578382906000526020600020906002020160405180604001604052908160008201805461024a90610ca0565b80601f016020809104026020016040519081016040528092919081815260200182805461027690610ca0565b80156102c35780601f10610298576101008083540402835291602001916102c3565b820191906000526020600020905b8154815290600101906020018083116102a657829003601f168201915b5050505050815260200160018201548152505081526020019060010190610217565b50505050905090565b6000806000905060005b6000805490508110156103bb57836040516020016103169190610a76565b6040516020818303038152906040528051906020012060008281548110610366577f4e487b7100000000000000000000000000000000000000000000000000000000600052603260045260246000fd5b90600052602060002090600202016000016040516020016103879190610a8d565b6040516020818303038152906040528051906020012014156103a857600191505b80806103b390610d03565b9150506102f8565b5080915050919050565b6103ce816102ee565b156103d857600080fd5b60006040518060400160405280838152602001428152509080600181540180825580915050600190039060005260206000209060020201600090919091909150600082015181600001908051906020019061043492919061064f565b506020820151816001015550507f8cd004936cc44cbfa2ffbc898b73a73bcac9cbea6d9225d638a7da4a986de2338142604051610472929190610b03565b60405180910390a150565b6000806000905060005b60018054905081101561054a57836040516020016104a59190610a76565b60405160208183030381529060405280519060200120600182815481106104f5577f4e487b7100000000000000000000000000000000000000000000000000000000600052603260045260246000fd5b90600052602060002090600202016000016040516020016105169190610a8d565b60405160208183030381529060405280519060200120141561053757600191505b808061054290610d03565b915050610487565b5080915050919050565b60606001805480602002602001604051908101604052809291908181526020016000905b8282101561064657838290600052602060002090600202016040518060400160405290816000820180546105ab90610ca0565b80601f01602080910402602001604051908101604052809291908181526020018280546105d790610ca0565b80156106245780601f106105f957610100808354040283529160200191610624565b820191906000526020600020905b81548152906001019060200180831161060757829003601f168201915b5050505050815260200160018201548152505081526020019060010190610578565b50505050905090565b82805461065b90610ca0565b90600052602060002090601f01602090048101928261067d57600085556106c4565b82601f1061069657805160ff19168380011785556106c4565b828001600101855582156106c4579182015b828111156106c35782518255916020019190600101906106a8565b5b5090506106d191906106d5565b5090565b5b808211156106ee5760008160009055506001016106d6565b5090565b600061070561070084610b58565b610b33565b90508281526020810184848401111561071d57600080fd5b610728848285610c5e565b509392505050565b600082601f83011261074157600080fd5b81356107518482602086016106f2565b91505092915050565b60006020828403121561076c57600080fd5b600082013567ffffffffffffffff81111561078657600080fd5b61079284828501610730565b91505092915050565b60006107a783836109de565b905092915050565b60006107bb8383610a1b565b905092915050565b60006107ce82610bbe565b6107d88185610bf9565b9350836020820285016107ea85610b89565b8060005b858110156108265784840389528151610807858261079b565b945061081283610bdf565b925060208a019950506001810190506107ee565b50829750879550505050505092915050565b600061084382610bc9565b61084d8185610c0a565b93508360208202850161085f85610b99565b8060005b8581101561089b578484038952815161087c85826107af565b945061088783610bec565b925060208a01995050600181019050610863565b50829750879550505050505092915050565b6108b681610c48565b82525050565b60006108c782610bd4565b6108d18185610c1b565b93506108e1818560208601610c6d565b6108ea81610dd9565b840191505092915050565b600061090082610bd4565b61090a8185610c2c565b935061091a818560208601610c6d565b61092381610dd9565b840191505092915050565b600061093982610bd4565b6109438185610c3d565b9350610953818560208601610c6d565b80840191505092915050565b6000815461096c81610ca0565b6109768186610c3d565b9450600182166000811461099157600181146109a2576109d5565b60ff198316865281860193506109d5565b6109ab85610ba9565b60005b838110156109cd578154818901526001820191506020810190506109ae565b838801955050505b50505092915050565b600060408301600083015184820360008601526109fb82826108bc565b9150506020830151610a106020860182610a58565b508091505092915050565b60006040830160008301518482036000860152610a3882826108bc565b9150506020830151610a4d6020860182610a58565b508091505092915050565b610a6181610c54565b82525050565b610a7081610c54565b82525050565b6000610a82828461092e565b915081905092915050565b6000610a99828461095f565b915081905092915050565b60006020820190508181036000830152610abe81846107c3565b905092915050565b60006020820190508181036000830152610ae08184610838565b905092915050565b6000602082019050610afd60008301846108ad565b92915050565b60006040820190508181036000830152610b1d81856108f5565b9050610b2c6020830184610a67565b9392505050565b6000610b3d610b4e565b9050610b498282610cd2565b919050565b6000604051905090565b600067ffffffffffffffff821115610b7357610b72610daa565b5b610b7c82610dd9565b9050602081019050919050565b6000819050602082019050919050565b6000819050602082019050919050565b60008190508160005260206000209050919050565b600081519050919050565b600081519050919050565b600081519050919050565b6000602082019050919050565b6000602082019050919050565b600082825260208201905092915050565b600082825260208201905092915050565b600082825260208201905092915050565b600082825260208201905092915050565b600081905092915050565b60008115159050919050565b6000819050919050565b82818337600083830152505050565b60005b83811015610c8b578082015181840152602081019050610c70565b83811115610c9a576000848401525b50505050565b60006002820490506001821680610cb857607f821691505b60208210811415610ccc57610ccb610d7b565b5b50919050565b610cdb82610dd9565b810181811067ffffffffffffffff82111715610cfa57610cf9610daa565b5b80604052505050565b6000610d0e82610c54565b91507fffffffffffffffffffffffffffffffffffffffffffffffffffffffffffffffff821415610d4157610d40610d4c565b5b600182019050919050565b7f4e487b7100000000000000000000000000000000000000000000000000000000600052601160045260246000fd5b7f4e487b7100000000000000000000000000000000000000000000000000000000600052602260045260246000fd5b7f4e487b7100000000000000000000000000000000000000000000000000000000600052604160045260246000fd5b6000601f19601f830116905091905056fea264697066735822122024c4ef791e7483419ff3d51654ba18fe67a0c88248eb5b5d10620e1a983b7f2b64736f6c63430008040033",
  "linkReferences": {},
  "deployedLinkReferences": {}
}